:020000040800F2
:1000000000280020D5140008B5110008BD11000813
:10001000C5110008CD110008D5110008000000002E
:10002000000000000000000000000000DD110008DA
:10003000E911000800000000F51100080112000895
:100040001D1500081D1500081D1500081D150008C8
:100050001D1500081D1500081D1500081D150008B8
:100060001D1500081D1500081D1500081D150008A8
:100070001D1500081D1500081D1500081D15000898
:100080001D1500081D1500081D1500081D15000888
:100090001D1500081D1500081D1500081D15000878
:1000A0001D1500081D1500081D1500081D15000868
:1000B0000D1200081D150008000000001D150008A5
:1000C0001D15000800000000000000001D150008BC
:1000D000000000001D1500081D15000800000000AC
:1000E0001D1500081D1500081D1500080000000062
:1000F0000000000000000000000000000000000000
:0C01000000000000000000005FF808F1A3
:10010C0010B5054C237833B9044B13B10448AFF345
:10011C0000800123237010BDBC00002000000000F3
:10012C009C2B000808B5034B1BB103490348AFF3E4
:10013C00008008BD00000000C00000209C2B0008BF
:10014C0080B483B000AF7860094A7B6852F82330E2
:10015C00012B06D1064A7B68002142F823100123AB
:10016C0000E0002318460C37BD4680BC704700BF2A
:10017C00D800002080B582B000AF00237B6078E00F
:10018C00404A7B6852F823203F497B6841F8232082
:10019C003E4A7B6852F823203A497B6841F8232079
:1001AC004FF400627B6802FA03F39BB2194638489D
:1001BC0001F0C0FC03461946344A7B6842F8231010
:1001CC00304A7B6852F8232030497B6851F8233041
:1001DC009A424BD12B4A7B6852F823202A497B68E0
:1001EC0051F823309A4241D1274A7B6852F8232098
:1001FC0028497B6851F823309A4218D0224A7B68F0
:10020C0052F8232023497B6841F823201F4A7B683E
:10021C0052F82330002B29D11F4A7B68642142F805
:10022C0023101E4A7B68012142F823101EE01A4A53
:10023C007B6852F823305A1E17497B6841F82320FB
:10024C00154A7B6852F82330002B0FD1124A7B6879
:10025C000A2142F823100F4A7B6852F82330002BF6
:10026C0004D10E4A7B68012142F823107B680133CC
:10027C007B607B68022B83DD00BF00BF0837BD4667
:10028C0080BD00BF18000020240000200C000020BE
:10029C00000801403000002000000020D8000020A1
:1002AC0080B500AF044B1B68044A1268114618460F
:1002BC0000F0E8FE00BF80BDE4000020E800002054
:1002CC0080B500AF00F04CF800F064F900F014FABF
:1002DC0000BF80BD80B500AF0020FFF731FF0346A3
:1002EC00012B30D14FF0FF3001F026F8164B0022D5
:1002FC001A60164B00221A604FF0FF334FF0FF329A
:10030C004FF0FF314FF0FF3000F0A2FE104B0022F7
:10031C001A604FF0FF3000F0A5FB4FF0FF3000F0FB
:10032C001FFC0C4B4FF0FF321A600B4B4FF0FF329F
:10033C001A600A4B0A221A60642000F071FF6420D4
:10034C0000F0A6FF00BF80BDE4000020E800002004
:10035C00EC0000203C000020400000204400002065
:10036C0080B500AF814B1B68212B6DD0212B00F386
:10037C00F980162B00F0AF80162B00F3F380012BC5
:10038C0002D00B2B19D0EDE0794B1B684FF47A722D
:10039C0002FB03F3184600F043FF4FF47A7000F0B1
:1003AC005BFF642000F074FF714B1B68013B714ACA
:1003BC0013606E4B0B221A60D5E00B2000F052FB41
:1003CC006D4B1B68012B0FD16A4B1B68013B694AB3
:1003DC0013606A4B1B68002B02DA684B09221A6007
:1003EC004FF47A7000F038FF654B1B68012B10D16D
:1003FC00644B1B684FF47A7202FB03F3184600F04F
:10040C000FFF604B1B68013B5A4A1360574B21226C
:10041C001A605D4B1B68012B13D1FFF741FF5B4B3F
:10042C001B68012B14BF01230023DBB21A46574B68
:10043C001A60564B1B68184600F0ACFD642000F0A7
:10044C0027FFFFF747FF8EE0212000F00BFB4A4B04
:10045C001B68012B0FD1474B1B68013B454A1360AE
:10046C00464B1B68002B02DA444B09221A604FF4EE
:10047C007A7000F0F1FE424B1B68012B10D1444BFB
:10048C001B684FF47A7202FB03F3184600F0C8FEA7
:10049C003F4B1B68013B374A1360344B16221A60E2
:1004AC00394B1B68012B13D1FFF7FAFE374B1B6836
:1004BC00012B14BF01230023DBB21A46334B1A6005
:1004CC00324B1B68184600F065FD642000F0E0FE1E
:1004DC00FFF700FF47E0162000F0C4FA264B1B681C
:1004EC00012B0FD1234B1B68013B224A1360234B7A
:1004FC001B68002B02DA214B09221A604FF47A7028
:10050C0000F0AAFE1E4B1B68012B10D1184B1B6868
:10051C004FF47A7202FB03F3184600F081FE144B81
:10052C001B68013B134A1360104B0B221A60164BCD
:10053C001B68012B13D1FFF7B3FE144B1B68012B67
:10054C0014BF01230023DBB21A46104B1A600F4B69
:10055C001B68184600F01EFD642000F099FEFFF7A2
:10056C00B9FE00E000BF00BF80BD00BF3C00002012
:10057C0048000020E400002068010020E800002072
:10058C0064010020500000206C010020EC000020D1
:10059C004C00002080B500AF504B1B68212B22D0A3
:1005AC00212B00F39280162B43D0162B00F38D8059
:1005BC00012B02D00B2B62D087E0494B1B684FF408
:1005CC007A7202FB03F3184600F07EFE4FF47A7049
:1005DC0000F096FE424B1B68013B424A13603F4BB6
:1005EC0021221A6078E0212000F0BAFA3E4B1B68F9
:1005FC00012B08D13B4B1B68013B3A4A13604FF46B
:10060C007A7000F07DFE394B1B68012B5FD1384BA3
:10061C001B684FF47A7202FB03F3184600F054FE89
:10062C00334B1B68013B2F4A13602C4B16221A606C
:10063C004DE0162000F094FA2B4B1B68012B08D1CF
:10064C00284B1B68013B274A13604FF47A7000F06B
:10065C0057FE264B1B68012B3BD1264B1B684FF4D6
:10066C007A7202FB03F3184600F02EFE214B1B6836
:10067C00013B1C4A1360194B0B221A6029E00B201A
:10068C0000F06EFA184B1B68012B08D1154B1B6838
:10069C00013B144A13604FF47A7000F031FE134B97
:1006AC001B68012B17D10E4B1B684FF47A7202FB9F
:1006BC0003F3184600F008FE094B1B68013B094A7E
:1006CC001360064B21221A6005E000BF04E000BF56
:1006DC0002E000BF00E000BF00BF80BD4000002072
:1006EC0050000020E8000020740100207001002060
:1006FC004C0000204800002080B582B000AFA74B12
:10070C001B681E2B00F0CE801E2B00F395810A2B4C
:10071C0002D0142B63D08FE1A14B1B681621184615
:10072C0000F0B0FC0020FFF70BFD0346012B13D1AA
:10073C009B4B01221A60994B14221A604FF0FF3028
:10074C0000F00EFA4FF0FF3000F08CF9642000F04E
:10075C0067FD642000F09CFD0120FFF7F1FC0346CF
:10076C00012B0AD18E4B1B68632B03D08C4B1B685F
:10077C00013300E001238A4A13600220FFF7E0FCFA
:10078C000346012B03D1864B1B68864A1360864BAC
:10079C001B68012B0BD10221844801F0FAF91021BE
:1007AC00824801F0F6F94FF4FA7000F039FD804BF5
:1007BC001B68012B40F042817E4B1B680133002BE0
:1007CC0003F00103B8BF5B427A4A1360794B1B6894
:1007DC00184600F0DFFB642000F05AFD2EE1764B4A
:1007EC001B682121184600F04DFC0020FFF7A8FCE7
:1007FC000346012B13D1704B01221A60674B1E224A
:10080C001A604FF0FF3000F0ABF94FF0FF3000F002
:10081C0029F9642000F004FD642000F039FD01206A
:10082C00FFF78EFC0346012B0AD1634B1B68632B2D
:10083C0003D0614B1B68013300E001235E4A136057
:10084C000220FFF77DFC0346012B03D15A4B1B689A
:10085C005A4A1360544B1B68012B0BD1042153488B
:10086C0001F097F92021514801F093F94FF4FA70F7
:10087C0000F0D6FC4E4B1B68012B40F0E1804D4B39
:10088C001B680133002B03F00103B8BF5B42494ADC
:10089C001360484B1B68184600F07CFB642000F08A
:1008AC00F7FCCDE0464B1B682C21184600F0EAFB08
:1008BC000020FFF745FC0346012B61D13F4B1A6822
:1008CC00404B1B689A4206DD3E4B1A683B4B1B683B
:1008DC0013443C4A13603B4B1A68384B1B681A4450
:1008EC00304B1B689A4206DD364B1A68334B1B683B
:1008FC0013442C4A13602B4B1A68304B1B681A4458
:10090C00304B1B689A4206DC264B1A682B4B1B6833
:10091C00D31A2C4A13602C2000F0A4F82C2000F0E1
:10092C001FF9082000F0AAFA082000F0EDFA0023C5
:10093C007B6008E000224FF480711C4801F011F933
:10094C007B6801337B607B68032BF3DD40F6B830AA
:10095C0000F042FE4FF0FF3000F002F94FF0FF3094
:10096C0000F080F8002000F0E7FC0C4B4FF0FF3259
:10097C001A60154B01221A60144B01221A6062E0B6
:10098C000120FFF7DDFB0346012B24D10C4B1B6828
:10099C00632B1DD00A4B1B6801331AE04400002066
:1009AC005400002048000020640100200008014091
:1009BC006C010020EC000020580000204C000020AE
:1009CC005C000020500000203C0000204000002073
:1009DC0001231E4A13600220FFF7B2FB0346012BD2
:1009EC0003D11A4B1B681A4A13601A4B1B68012B54
:1009FC000BD10821184801F0CCF84021164801F021
:100A0C00C8F84FF4FA7000F00BFC144B1B68012B68
:100A1C0018D1134B1B680133002B03F00103B8BF33
:100A2C005B420F4A13600E4B1B68184600F0B2FA7B
:100A3C00642000F02DFC05E000BF04E000BF02E0E4
:100A4C0000BF00E000BF0837BD4680BD5C00002041
:100A5C005000002064010020000801406C010020BF
:100A6C00EC00002080B582B000AF78607B682C2B46
:100A7C0048D07B682C2B58DC7B68212B2FD07B68D3
:100A8C00212B52DC7B680B2B03D07B68162B13D0ED
:100A9C004BE000220221304801F063F801220421CE
:100AAC002D4801F05EF8012208212B4801F059F87D
:100ABC002A4B0B221A604BE001220221264801F03E
:100ACC0050F800220421244801F04BF8012208219F
:100ADC00214801F046F8214B16221A6038E0012219
:100AEC0002211D4801F03DF8012204211A4801F0B1
:100AFC0038F800220821184801F033F8174B21224E
:100B0C001A6025E000220221134801F02AF8002285
:100B1C000421114801F025F8002208210E4801F0AB
:100B2C0020F80E4B2C221A6012E0012202210A48F6
:100B3C0001F017F801220421074801F012F80122F4
:100B4C000821054801F00DF8044B00221A6000BF83
:100B5C0000BF0837BD4680BD00080140F0000020F2
:100B6C0080B582B000AF78607B682C2B48D07B6856
:100B7C002C2B58DC7B68212B2FD07B68212B52DC53
:100B8C007B680B2B03D07B68162B13D04BE0002219
:100B9C001021304800F0E5FF012220212D4800F003
:100BAC00E0FF012240212B4800F0DBFF2A4B0B22F7
:100BBC001A604BE001221021264800F0D2FF0022DF
:100BCC002021244800F0CDFF01224021214800F0D3
:100BDC00C8FF214B16221A6038E0012210211D4853
:100BEC0000F0BFFF012220211A4800F0BAFF0022BA
:100BFC004021184800F0B5FF174B21221A6025E060
:100C0C0000221021134800F0ACFF002220211148D3
:100C1C0000F0A7FF002240210E4800F0A2FF0E4B6F
:100C2C002C221A6012E0012210210A4800F099FFD0
:100C3C0001222021074800F094FF012240210548A1
:100C4C0000F08FFF044B00221A6000BF00BF083772
:100C5C00BD4680BD00080140F400002080B500AF07
:100C6C0000F058FC00F00CF800F092F800F044F89A
:100C7C00024801F0D5FBFFF723FBFCE7F80000204E
:100C8C0080B590B000AF07F1180328220021184658
:100C9C0001F052FF3B1D00221A605A609A60DA6024
:100CAC001A610223BB610123BB621023FB62002388
:100CBC007B6307F11803184600F084FF0346002BF2
:100CCC0001D000F0D5F80F237B600023BB6000231C
:100CDC00FB6000233B6100237B613B1D0021184618
:100CEC0001F0F2F90346002B01D000F0C1F800BF6F
:100CFC004037BD4680BD000080B586B000AF07F11F
:100D0C00080300221A605A609A60DA603B4600229F
:100D1C001A605A601D4B4FF080421A601B4B41F613
:100D2C003F725A60194B00229A60184B0922DA6004
:100D3C00164B00221A61154B00229A61134801F0E0
:100D4C001FFB0346002B01D000F092F84FF48053A8
:100D5C00BB6007F1080319460C4801F09DFC0346E3
:100D6C00002B01D000F084F800233B6000237B6053
:100D7C003B461946054801F075FE0346002B01D091
:100D8C0000F076F800BF1837BD4680BDF800002093
:100D9C0080B586B000AF07F1080300221A605A60D4
:100DAC009A60DA60294B9B69284A43F004039361EB
:100DBC00264B9B6903F004037B607B68234B9B6988
:100DCC00224A43F008039361204B9B6903F008030C
:100DDC003B603B68002240F2FE711D4800F0C1FEF2
:100DEC00002243F6FF711B4800F0BBFE40F2FE737D
:100DFC00BB600123FB6000233B6102237B6107F195
:100E0C0008031946124800F019FD43F6FF73BB6046
:100E1C000123FB6000233B6102237B6107F1080384
:100E2C0019460C4800F00AFD4FF46053BB600023D8
:100E3C00FB6001233B6107F108031946044800F0ED
:100E4C00FDFC00BF1837BD4680BD00BF001002403E
:100E5C0000080140000C014080B582B000AF786002
:100E6C00FFF788F900F0DAFA00BF0837BD4680BDFD
:100E7C0080B400AF72B600BF00BFFDE780B584B090
:100E8C0000AF78607B68002B1EDB7B68092B1BDCBA
:100E9C000023FB6014E00122FB6802FA03F399B211
:100EAC0017487A681346DB009B1AC218FB68134478
:100EBC001B781A46134800F054FEFB680133FB60A4
:100ECC00FB68062BE7DD17E00023BB6010E0012276
:100EDC00BB6802FA03F399B2094ABB681344463360
:100EEC001B781A46074800F03CFEBB680133BB6018
:100EFC00BB68062BEBDD00BF00BF1037BD4680BDC5
:100F0C0060000020000C014080B584B000AF786018
:100F1C007B68002B1EDB7B68092B1BDC0023FB6032
:100F2C0014E08022FB6802FA03F399B217487A683E
:100F3C001346DB009B1AC218FB6813441B781A4635
:100F4C00134800F00EFEFB680133FB60FB68062BB8
:100F5C00E7DD17E00023BB6010E08022BB6802FADB
:100F6C0003F399B2094ABB68134446331B781A46FB
:100F7C00074800F0F6FDBB680133BB60BB68062B6D
:100F8C00EBDD00BF00BF1037BD4680BD6000002008
:100F9C00000C014080B582B000AF78607B68002BFC
:100FAC0003F00103B8BF5B427B607B68002B03D06E
:100FBC007B68012B22D043E000228021224800F0E4
:100FCC00D0FD01224FF480711F4800F0CAFD0022B1
:100FDC004FF400711C4800F0C4FD01224FF48061F5
:100FEC00194800F0BEFD194B1B681846FFF746FF69
:100FFC00164B9B681846FFF787FF21E001228021E2
:10100C00114800F0AEFD00224FF480710E4800F044
:10101C00A8FD01224FF400710B4800F0A2FD002244
:10102C004FF48061084800F09CFD084B5B68184643
:10103C00FFF724FF054BDB681846FFF765FF00BF81
:10104C0000BF0837BD4680BD0008014040010020AC
:10105C0080B485B000AFF860B9607A603B60084A34
:10106C00FB681360064ABB685360054A7B68936053
:10107C00034A3B68D36000BF1437BD4680BC704741
:10108C004001002080B483B000AF786039607B6889
:10109C00184A82FB03129210DB17D31A164A1360FC
:1010AC007968144B83FB01239A10CB17D21A134681
:1010BC009B0013445B00CA1A0F4B5A603B680D4AE5
:1010CC0082FB03129210DB17D31A0B4A9360396818
:1010DC00084B83FB01239A10CB17D21A13469B00A3
:1010EC0013445B00CA1A044BDA6000BF0C37BD46D0
:1010FC0080BC7047676666664001002080B485B08E
:10110C0000AF154B9B69144A43F001039361124BDA
:10111C009B6903F00103BB60BB680F4BDB690E4A94
:10112C0043F08053D3610C4BDB6903F080537B603D
:10113C007B680A4B5B68FB60FB6823F0E063FB6039
:10114C00FB6843F08063FB60044AFB68536000BF9C
:10115C001437BD4680BC70470010024000000140AF
:10116C0080B584B000AF78607B681B68B3F1804FAA
:10117C0013D10C4BDB690B4A43F00103D361094BD0
:10118C00DB6903F00103FB60FB68002200211C20DB
:10119C0000F01DFB1C2000F036FB00BF1037BD46D5
:1011AC0080BD00BF0010024080B400AF00BFFDE75F
:1011BC0080B400AF00BFFDE780B400AF00BFFDE717
:1011CC0080B400AF00BFFDE780B400AF00BFFDE707
:1011DC0080B400AF00BFBD4680BC704780B400AF88
:1011EC0000BFBD4680BC704780B400AF00BFBD4699
:1011FC0080BC704780B500AF00F0D2F900BF80BD55
:10120C0080B500AF024801F057F900BF80BD00BFA8
:10121C00F800002080B400AF00BFBD4680BC704712
:10122C0080B483B000AF78607B68084A82FB0312FD
:10123C009210DB17D31A064A1360064B00221A6071
:10124C0000BF0C37BD4680BC704700BF6766666642
:10125C00500100206401002080B483B000AF78609E
:10126C007B68084A82FB03129210DB17D31A064ADA
:10127C001360064B00221A6000BF0C37BD4680BCC1
:10128C00704700BF67666666540100206801002045
:10129C0080B483B000AF78607B68084A82FB03128D
:1012AC009210DB17D31A064A1360064B00221A6001
:1012BC0000BF0C37BD4680BC704700BF67666666D2
:1012CC00580100206C01002080B483B000AF78601E
:1012DC007B68084A82FB03129210DB17D31A064A6A
:1012EC001360064B00221A6000BF0C37BD4680BC51
:1012FC00704700BF676666665C01002070010020C5
:10130C0080B483B000AF78607B68084A82FB03121C
:10131C009210DB17D31A064A1360064B00221A6090
:10132C0000BF0C37BD4680BC704700BF6766666661
:10133C00600100207401002080B483B000AF78609D
:10134C007B68013B042B30D801A252F823F000BF7C
:10135C00711300087F1300088D1300089B130008FD
:10136C00A9130008234B00221A60234B00221A6099
:10137C003AE0224B00221A60214B00221A6033E023
:10138C00204B00221A60204B00221A602CE01F4BCD
:10139C0000221A601E4B00221A6025E01D4B002211
:1013AC001A601D4B00221A601EE0124B00221A60BC
:1013BC00124B00221A60134B00221A60134B0022AE
:1013CC001A60144B00221A600B4B00221A600C4B53
:1013DC0000221A600C4B00221A600D4B00221A607E
:1013EC000D4B00221A6000BF00BF0C37BD4680BCFD
:1013FC00704700BF50010020640100205401002000
:10140C0068010020580100206C0100205C010020C4
:10141C0070010020600100207401002080B400AF36
:10142C001F4B1B68013B1E4A13601E4B1B68013B84
:10143C001C4A13601C4B1B68013B1B4A13601B4B63
:10144C001B68013B194A1360194B1B68013B184A76
:10145C001360134B1B68002B02D1164B01221A6030
:10146C00104B1B68002B02D1134B01221A600E4B40
:10147C001B68002B02D1114B01221A600B4B1B680D
:10148C00002B02D10E4B01221A60094B1B68002B5A
:10149C0002D10C4B01221A6000BFBD4680BC7047C4
:1014AC005001002054010020580100205C01002054
:1014BC006001002064010020680100206C01002004
:1014CC007001002074010020FFF7A4FE0B480C49AA
:1014DC000C4A002302E0D458C4500433C4188C4284
:1014EC00F9D3094A094C002301E013600432A242EB
:1014FC00FBD301F029FBFFF7B1FB70470000002084
:10150C00BC000020E02B0008BC0000207C01002067
:10151C00FEE7000080B500AF084B1B68074A43F09C
:10152C0010031360032000F047F90F2000F008F8B7
:10153C00FFF7E4FD0023184680BD00BF00200240E9
:10154C0080B582B000AF7860124B1A68124B1B78D2
:10155C0019464FF47A73B3FBF1F3B2FBF3F318466D
:10156C0000F05FF90346002B01D001230EE07B68ED
:10157C000F2B0AD8002279684FF0FF3000F027F9C2
:10158C00064A7B681360002300E0012318460837E5
:10159C00BD4680BDB0000020B8000020B400002083
:1015AC0080B400AF054B1B781A46054B1B681344DF
:1015BC00034A136000BFBD4680BC7047B8000020D2
:1015CC007801002080B400AF024B1B681846BD4662
:1015DC0080BC70477801002080B584B000AF786083
:1015EC00FFF7F0FFB8607B68FB60FB68B3F1FF3F6F
:1015FC0005D00A4B1B781A46FB681344FB6000BFEE
:10160C00FFF7E0FF0246BB68D31AFA689A42F7D894
:10161C0000BF00BF1037BD4680BD00BFB800002022
:10162C0080B485B000AF78607B6803F00703FB6083
:10163C000C4BDB68BB60BA684FF6FF031340BB6012
:10164C00FB681A02BB68134343F0BF6343F40033D7
:10165C00BB60044ABB68D36000BF1437BD4680BC76
:10166C00704700BF00ED00E080B400AF044BDB68B6
:10167C001B0A03F007031846BD4680BC704700BF29
:10168C0000ED00E080B483B000AF0346FB7197F926
:10169C000730002B0BDBFB7903F01F02064997F98F
:1016AC0007305B09012000FA02F241F8232000BF49
:1016BC000C37BD4680BC704700E100E080B483B0BD
:1016CC0000AF03463960FB7197F90730002B0ADB3A
:1016DC003B68DAB20C4997F907301201D2B20B44CD
:1016EC0083F800230AE03B68DAB20849FB7903F07F
:1016FC000F03043B1201D2B20B441A7600BF0C3715
:10170C00BD4680BC704700BF00E100E000ED00E08A
:10171C0080B489B000AFF860B9607A60FB6803F000
:10172C000703FB61FB69C3F10703042B28BF0423E8
:10173C00BB61FB690433062B02D9FB69033B00E058
:10174C0000237B614FF0FF32BB6902FA03F3DA43EB
:10175C00BB681A407B699A404FF0FF317B6901FAF4
:10176C0003F3D9437B680B40134318462437BD461B
:10177C0080BC704780B582B000AF78607B68013B5D
:10178C00B3F1807F01D301230FE00A4A7B68013B50
:10179C0053600F214FF0FF30FFF790FF054B0022F5
:1017AC009A60044B07221A60002318460837BD467E
:1017BC0080BD00BF10E000E080B582B000AF786063
:1017CC007868FFF72DFF00BF0837BD4680BD80B598
:1017DC0086B000AF0346B9607A60FB7300237B616F
:1017EC00FFF742FF78617A68B9687869FFF790FF74
:1017FC00024697F90F3011461846FFF75FFF00BFFE
:10180C001837BD4680BD80B582B000AF0346FB7172
:10181C0097F907301846FFF735FF00BF0837BD466C
:10182C0080BD80B582B000AF78607868FFF7A2FF0A
:10183C00034618460837BD4680BD000080B48BB007
:10184C0000AF7860396000237B6200233B6261E16A
:10185C0001227B6A02FA03F3FB613B681B68FA699D
:10186C001340BB61BA69FB699A4240F050813B68F6
:10187C005B68974A93425ED0954A934275D8954AD5
:10188C00934258D0934A93426FD8934A934252D082
:10189C00914A934269D8914A93424CD08F4A9342D1
:1018AC0063D88F4A934246D08D4A93425DD8122B0F
:1018BC002AD8122B59D801A252F823F04319000848
:1018CC001D1900082F190008711900087719000854
:1018DC00771900087719000877190008771900089C
:1018EC00771900087719000877190008771900088C
:1018FC00771900087719000877190008771900087C
:10190C002519000839190008764A934213D02CE0A7
:10191C003B68DB683B6229E03B68DB6804333B6275
:10192C0024E03B68DB6808333B621FE03B68DB6804
:10193C000C333B621AE03B689B68002B02D10423FA
:10194C003B6213E03B689B68012B05D108233B628B
:10195C007B68FA691A6109E008233B627B68FA69C3
:10196C005A6103E000233B6200E000BFBB69FF2B20
:10197C0001D87B6801E07B6804337B61BB69FF2B7A
:10198C0002D87B6A9B0002E07B6A083B9B003B61B0
:10199C007B691A680F213B6901FA03F3DB431A4098
:1019AC00396A3B6901FA03F31A437B691A603B6895
:1019BC005B6803F08053002B00F0A9804A4B9B69B5
:1019CC00494A43F001039361474B9B6903F00103C0
:1019DC00BB60BB68454A7B6A9B08023352F82330D4
:1019EC00FB607B6A03F003039B000F2202FA03F3F4
:1019FC00DB43FA681340FB607B683D4A93420DD091
:101A0C007B683C4A934207D07B683B4A934201D1A6
:101A1C00022304E0032302E0012300E000237A6A9E
:101A2C0002F0030292009340FA681343FB602F49C3
:101A3C007B6A9B080233FA6841F823203B685B6899
:101A4C0003F48013002B06D02C4B9A682B49BB69EE
:101A5C0013438B6006E0294B9A68BB69DB4327492B
:101A6C0013408B603B685B6803F40013002B06D0BB
:101A7C00224BDA682149BB691343CB6006E01F4B4C
:101A8C00DA68BB69DB431D491340CB603B685B687C
:101A9C0003F40033002B06D0184B5A681749BB6966
:101AAC0013434B6006E0154B5A68BB69DB43134983
:101ABC0013404B603B685B6803F48033002B1FD0F2
:101ACC000E4B1A680D49BB6913430B601FE000BF36
:101ADC000000321000003110000022100000211014
:101AEC000000121000001110001002400000014014
:101AFC0000080140000C01400010014000040140AE
:101B0C000B4B1A68BB69DB43094913400B607B6ABA
:101B1C0001337B623B681A687B6A22FA03F3002B61
:101B2C007FF496AE00BF00BF2C37BD4680BC70471B
:101B3C000004014080B485B000AF78600B467B8018
:101B4C007B689A687B881340002B02D00123FB73BF
:101B5C0001E00023FB73FB7B18461437BD4680BCA9
:101B6C00704780B483B000AF78600B467B8013461F
:101B7C007B707B78002B03D07A887B681A6103E03A
:101B8C007B881A047B681A6100BF0C37BD4680BC89
:101B9C00704780B485B000AF78600B467B807B6863
:101BAC00DB68FB607A88FB6813401A04FB68D94336
:101BBC007B880B401A437B681A6100BF1437BD4603
:101BCC0080BC704780B586B000AF78607B68002B16
:101BDC0001D1012372E27B681B6803F00103002B27
:101BEC0000F08780924B5B6803F00C03042B0CD045
:101BFC008F4B5B6803F00C03082B12D18C4B5B688A
:101C0C0003F48033B3F5803F0BD1894B1B6803F48D
:101C1C000033002B6CD07B685B68002B68D10123F0
:101C2C004CE27B685B68B3F5803F06D1804B1B6848
:101C3C007F4A43F4803313602EE07B685B68002B93
:101C4C000CD17B4B1B687A4A23F480331360784B9E
:101C5C001B68774A23F4802313601DE07B685B6864
:101C6C00B3F5A02F0CD1724B1B68714A43F480233F
:101C7C0013606F4B1B686E4A43F4803313600BE0A8
:101C8C006B4B1B686A4A23F480331360684B1B68E8
:101C9C00674A23F4802313607B685B68002B13D0A6
:101CAC00FFF790FC386108E0FFF78CFC02463B69BB
:101CBC00D31A642B01D9032300E25D4B1B6803F498
:101CCC000033002BF0D014E0FFF77CFC386108E007
:101CDC00FFF778FC02463B69D31A642B01D9032326
:101CEC00ECE1534B1B6803F40033002BF0D100E004
:101CFC0000BF7B681B6803F00203002B63D04C4BC6
:101D0C005B6803F00C03002B0BD0494B5B6803F0B2
:101D1C000C03082B1CD1464B5B6803F48033002B5F
:101D2C0016D1434B1B6803F00203002B05D07B68D4
:101D3C001B69012B01D00123C0E13D4B1B6823F033
:101D4C00F8027B685B69DB00394913430B603AE0AE
:101D5C007B681B69002B20D0364B01221A60FFF7E1
:101D6C0031FC386108E0FFF72DFC02463B69D31AC1
:101D7C00022B01D90323A1E12D4B1B6803F00203B5
:101D8C00002BF0D02A4B1B6823F0F8027B685B69B0
:101D9C00DB00274913430B6015E0264B00221A6029
:101DAC00FFF710FC386108E0FFF70CFC02463B69BA
:101DBC00D31A022B01D9032380E11D4B1B6803F0BE
:101DCC000203002BF0D17B681B6803F00803002B87
:101DDC003AD07B689B69002B19D0174B01221A60F3
:101DEC00FFF7F0FB386108E0FFF7ECFB02463B69BC
:101DFC00D31A022B01D9032360E10D4B5B6A03F06C
:101E0C000203002BF0D0012000F09CFA1CE00A4BDE
:101E1C0000221A60FFF7D6FB38610FE0FFF7D2FB08
:101E2C0002463B69D31A022B08D9032346E100BFB3
:101E3C00001002400000424280044242924B5B6A16
:101E4C0003F00203002BE9D17B681B6803F0040349
:101E5C00002B00F0A6800023FB758B4BDB6903F095
:101E6C008053002B0DD1884BDB69874A43F080539C
:101E7C00D361854BDB6903F08053BB60BB680123E6
:101E8C00FB75824B1B6803F48073002B18D17F4BBE
:101E9C001B687E4A43F480731360FFF793FB386131
:101EAC0008E0FFF78FFB02463B69D31A642B01D97C
:101EBC00032303E1754B1B6803F48073002BF0D0F4
:101ECC007B68DB68012B06D16F4B1B6A6E4A43F0B3
:101EDC00010313622DE07B68DB68002B0CD16A4B8D
:101EEC001B6A694A23F001031362674B1B6A664A3B
:101EFC0023F0040313621CE07B68DB68052B0CD118
:101F0C00614B1B6A604A43F0040313625E4B1B6A0D
:101F1C005D4A43F0010313620BE05B4B1B6A5A4AA8
:101F2C0023F001031362584B1B6A574A23F0040336
:101F3C0013627B68DB68002B15D0FFF743FB38611D
:101F4C000AE0FFF73FFB02463B69D31A41F28832A5
:101F5C00934201D90323B1E04B4B1B6A03F00203FC
:101F6C00002BEED014E0FFF72DFB38610AE0FFF7F1
:101F7C0029FB02463B69D31A41F28832934201D9BC
:101F8C0003239BE0404B1B6A03F00203002BEED1B2
:101F9C00FB7D012B05D13C4BDB693B4A23F0805385
:101FAC00D3617B68DB69002B00F08780364B5B6864
:101FBC0003F00C03082B61D07B68DB69022B46D144
:101FCC00334B00221A60FFF7FDFA386108E0FFF787
:101FDC00F9FA02463B69D31A022B01D903236DE0AF
:101FEC00294B1B6803F00073002BF0D17B681B6A34
:101FFC00B3F5803F08D1244B5B6823F400327B6837
:10200C009B68214913434B601F4B5B6823F474128C
:10201C007B68196A7B685B6A0B431B4913434B60F3
:10202C001B4B01221A60FFF7CDFA386108E0FFF76D
:10203C00C9FA02463B69D31A022B01D903233DE0AE
:10204C00114B1B6803F00073002BF0D035E0104BE4
:10205C0000221A60FFF7B6FA386108E0FFF7B2FA0F
:10206C0002463B69D31A022B01D9032326E0064B07
:10207C001B6803F00073002BF0D11EE07B68DB695A
:10208C00012B07D1012319E0001002400070004021
:10209C00600042420B4B5B68FB60FB6803F48032D0
:1020AC007B681B6A9A4206D1FB6803F470127B684A
:1020BC005B6A9A4201D0012300E0002318461837CE
:1020CC00BD4680BD0010024080B584B000AF786082
:1020DC0039607B68002B01D10123D0E06A4B1B686F
:1020EC0003F007033A689A4210D9674B1B6823F038
:1020FC00070265493B6813430B60634B1B6803F095
:10210C0007033A689A4201D00123B8E07B681B6848
:10211C0003F00203002B20D07B681B6803F0040340
:10212C00002B05D0594B5B68584A43F4E06353606D
:10213C007B681B6803F00803002B05D0534B5B68CE
:10214C00524A43F460535360504B5B6823F0F002E7
:10215C007B689B684D4913434B607B681B6803F09D
:10216C000103002B40D07B685B68012B07D1474BE8
:10217C001B6803F40033002B15D101237FE07B682F
:10218C005B68022B07D1414B1B6803F00073002BDB
:10219C0009D1012373E03D4B1B6803F00203002BB4
:1021AC0001D101236BE0394B5B6823F003027B68A0
:1021BC005B68364913434B60FFF704FAF8600AE09A
:1021CC00FFF700FA0246FB68D31A41F288329342B9
:1021DC0001D9032353E02D4B5B6803F00C027B68A1
:1021EC005B689B009A42EBD1274B1B6803F00703FB
:1021FC003A689A4210D2244B1B6823F007022249FA
:10220C003B6813430B60204B1B6803F007033A68D1
:10221C009A4201D0012332E07B681B6803F004036F
:10222C00002B08D0194B5B6823F4E0627B68DB68F9
:10223C00164913434B607B681B6803F00803002BA3
:10224C0009D0124B5B6823F460527B681B69DB007E
:10225C000E4913434B6000F021F802460B4B5B68B0
:10226C001B0903F00F030A49CB5C22FA03F3094A5A
:10227C001360094B1B681846FFF762F900231846D8
:10228C001037BD4680BD00BF002002400010024048
:10229C00B42B0008B0000020B400002080B487B03C
:1022AC0000AF0023FB600023BB6000237B61002395
:1022BC007B6000233B611E4B5B68FB60FB6803F09B
:1022CC000C03042B02D0082B03D027E0194B3B61E5
:1022DC0027E0FB689B0C03F00F03174AD35C7B6071
:1022EC00FB6803F48033002B10D0114B5B685B0C44
:1022FC0003F00103114AD35CBB607B680D4A03FBFE
:10230C0002F2BB68B2FBF3F37B6104E07B680C4A1E
:10231C0002FB03F37B617B693B6102E0054B3B6194
:10232C0000BF3B6918461C37BD4680BC704700BFD8
:10233C000010024000127A00C42B0008D42B0008B5
:10234C0000093D0080B485B000AF78600A4B1B6873
:10235C000A4AA2FB03235B0A7A6802FB03F3FB60C5
:10236C0000BFFB685A1EFA60002BF9D100BF00BFFA
:10237C001437BD4680BC7047B0000020D34D6210AE
:10238C0080B582B000AF78607B68002B01D101234F
:10239C0041E07B6893F83D30DBB2002B06D17B68C3
:1023AC00002283F83C207868FEF7DAFE7B68022274
:1023BC0083F83D207B681A687B6804331946104605
:1023CC0000F056FA7B68012283F846207B680122D4
:1023DC0083F83E207B68012283F83F207B68012232
:1023EC0083F840207B68012283F841207B6801221E
:1023FC0083F842207B68012283F843207B6801220A
:10240C0083F844207B68012283F845207B680122F5
:10241C0083F83D20002318460837BD4680BD0000D8
:10242C0080B485B000AF78607B6893F83D30DBB248
:10243C00012B01D0012335E07B68022283F83D207B
:10244C007B681B68DA687B681B6842F00102DA6003
:10245C007B681B68164A934209D07B681B68B3F1F2
:10246C00804F04D07B681B68124A934211D17B6861
:10247C001B689B6803F00703FB60FB68062B10D0FE
:10248C007B681B681A687B681B6842F001021A6043
:10249C0007E07B681B681A687B681B6842F00102C6
:1024AC001A60002318461437BD4680BC704700BF25
:1024BC00002C01400004004080B584B000AF78606F
:1024CC007B681B68DB68FB607B681B681B69BB60F7
:1024DC00BB6803F00203002B20D0FB6803F002035F
:1024EC00002B1BD07B681B686FF002021A617B68A3
:1024FC0001221A777B681B689B6903F00303002B8E
:10250C0003D0786800F098F905E0786800F08BF952
:10251C00786800F09AF97B6800221A77BB6803F0A0
:10252C000403002B20D0FB6803F00403002B1BD00A
:10253C007B681B686FF004021A617B6802221A77B1
:10254C007B681B689B6903F44073002B03D078688D
:10255C0000F072F905E0786800F065F9786800F031
:10256C0074F97B6800221A77BB6803F00803002B10
:10257C0020D0FB6803F00803002B1BD07B681B6882
:10258C006FF008021A617B6804221A777B681B685B
:10259C00DB6903F00303002B03D0786800F04CF9DF
:1025AC0005E0786800F03FF9786800F04EF97B6838
:1025BC0000221A77BB6803F01003002B20D0FB68B5
:1025CC0003F01003002B1BD07B681B686FF010020C
:1025DC001A617B6808221A777B681B68DB6903F435
:1025EC004073002B03D0786800F026F905E078687A
:1025FC0000F019F9786800F028F97B6800221A7746
:10260C00BB6803F00103002B0CD0FB6803F0010343
:10261C00002B07D07B681B686FF001021A61786889
:10262C00FEF71AFCBB6803F08003002B0CD0FB6890
:10263C0003F08003002B07D07B681B686FF08002CF
:10264C001A61786800F06FFABB6803F04003002B46
:10265C000CD0FB6803F04003002B07D07B681B6891
:10266C006FF040021A61786800F0F8F8BB6803F06C
:10267C002003002B0CD0FB6803F02003002B07D0A9
:10268C007B681B686FF020021A61786800F042FAD0
:10269C0000BF1037BD4680BD80B584B000AF7860F8
:1026AC0039600023FB737B6893F83C30012B01D11C
:1026BC000223B4E07B68012283F83C207B68022271
:1026CC0083F83D207B681B689B68BB60BB6823F06C
:1026DC007703BB60BB6823F47F43BB607B681B68DC
:1026EC00BA689A603B681B68B3F5005F3ED0B3F5DF
:1026FC00005F00F28780B3F5805F00F08680B3F551
:10270C00805F7FD8702B1AD0702B7BD8602B50D069
:10271C00602B77D8502B3CD0502B73D8402B58D0F3
:10272C00402B6FD8302B64D0302B6BD8202B60D043
:10273C00202B67D8002B5CD0102B5AD062E07B6822
:10274C0018683B6899683B685A683B68DB6800F01E
:10275C006AF97B681B689B68BB60BB6843F07703B6
:10276C00BB607B681B68BA689A604FE07B6818682E
:10277C003B6899683B685A683B68DB6800F053F922
:10278C007B681B689A687B681B6842F480429A607D
:10279C003CE07B6818683B6859683B68DB681A4604
:1027AC0000F0CAF87B681B685021184600F021F92C
:1027BC002CE07B6818683B6859683B68DB681A46F4
:1027CC0000F0E8F87B681B686021184600F011F9EE
:1027DC001CE07B6818683B6859683B68DB681A46E4
:1027EC0000F0AAF87B681B684021184600F001F93C
:1027FC000CE07B681A683B681B681946104600F0B1
:10280C00F8F803E00123FB7300E000BF7B680122B2
:10281C0083F83D207B68002283F83C20FB7B184624
:10282C001037BD4680BD80B483B000AF786000BF68
:10283C000C37BD4680BC704780B483B000AF786065
:10284C0000BF0C37BD4680BC704780B483B000AF6E
:10285C00786000BF0C37BD4680BC704780B483B035
:10286C0000AF786000BF0C37BD4680BC70470000DD
:10287C0080B485B000AF786039607B681B68FB6002
:10288C007B682B4A934207D07B68B3F1804F03D00F
:10289C007B68284A934208D1FB6823F07003FB60E5
:1028AC003B685B68FA681343FB607B68204A934281
:1028BC0007D07B68B3F1804F03D07B681D4A9342ED
:1028CC0008D1FB6823F44073FB603B68DB68FA6853
:1028DC001343FB60FB6823F080023B685B69134386
:1028EC00FB607B68FA681A603B689A687B68DA62FE
:1028FC003B681A687B689A627B680D4A934203D1E5
:10290C003B681A697B681A637B6801225A617B6891
:10291C001B6903F00103002B05D07B681B6923F0B6
:10292C0001027B681A6100BF1437BD4680BC70473A
:10293C00002C01400004004080B487B000AFF86068
:10294C00B9607A60FB681B6A7B61FB681B6A23F0C9
:10295C000102FB681A62FB689B693B613B6923F0CF
:10296C00F0033B617B681B013A6913433B617B6954
:10297C0023F00A037B617A69BB6813437B61FB68B4
:10298C003A699A61FB687A691A6200BF1C37BD46C6
:10299C0080BC704780B487B000AFF860B9607A60D3
:1029AC00FB681B6A7B61FB681B6A23F01002FB68E7
:1029BC001A62FB689B693B613B6923F470433B6182
:1029CC007B681B033A6913433B617B6923F0A003CB
:1029DC007B61BB681B017A6913437B61FB683A69B5
:1029EC009A61FB687A691A6200BF1C37BD4680BCCD
:1029FC00704780B485B000AF786039607B689B68A5
:102A0C00FB60FB6823F07003FB603A68FB681343C0
:102A1C0043F00703FB607B68FA689A6000BF1437C9
:102A2C00BD4680BC704780B487B000AFF860B96019
:102A3C007A603B60FB689B687B617B6923F47F4316
:102A4C007B613B681A027B681A43BB6813437A6943
:102A5C0013437B61FB687A699A6000BF1C37BD46E3
:102A6C0080BC704780B485B000AF786039607B68FB
:102A7C0093F83C30012B01D1022341E07B68012209
:102A8C0083F83C207B68022283F83D207B681B681E
:102A9C005B68FB607B681B689B68BB60FB6823F012
:102AAC007003FB603B681B68FA681343FB607B6830
:102ABC001B68FA685A607B681B68144A934209D0F9
:102ACC007B681B68B3F1804F04D07B681B68104A8D
:102ADC0093420CD1BB6823F08003BB603B685B68FE
:102AEC00BA681343BB607B681B68BA689A607B68E2
:102AFC00012283F83D207B68002283F83C200023D0
:102B0C0018461437BD4680BC704700BF002C0140EE
:102B1C000004004080B483B000AF786000BF0C3775
:102B2C00BD4680BC704780B483B000AF786000BFF6
:102B3C000C37BD4680BC704703460244934200D11B
:102B4C00704703F8011BF9E770B500260C4D0D4CCE
:102B5C00641BA410A64209D100F01AF800260A4DF5
:102B6C000A4C641BA410A64205D170BD55F8043B59
:102B7C0098470136EEE755F8043B98470136F2E7E3
:102B8C00D82B0008D82B0008D82B0008DC2B000809
:102B9C00F8B500BFF8BC08BC9E467047F8B500BF3E
:082BAC00F8BC08BC9E4670470E
:102BB40000000000000000000102030406070809E9
:102BC40002030405060708090A0B0C0D0E0F10106A
:042BD40001020000FA
:042BD80031010008BF
:042BDC000D010008DF
:102BE00064000000640000006400000001000000B8
:102BF00001000000010000000100000001000000D1
:102C000001000000010000000100000001000000C0
:102C100001000000010000000100000001000000B0
:102C200001000000FFFFFFFF0500000002000000A0
:102C3000030000000100000001000000010000008E
:102C4000000000000000010100000101010100007E
:102C5000010000010000000000010100010000016E
:102C60000100000001000001000000010000000060
:102C70000000000001010101000000000000000050
:102C8000000000010000010101010101010000003C
:0C2C900000127A0010000000010000009B
:04000005080014D506
:00000001FF
